:020000020000FC
:100000000C942B000C942A000C942A000C942A00C7
:100010000C94A2000C949B000C942A000C942A00CF
:100020000C942A000C94B4000C942A000C946200E6
:100030000C942A000C942A000C942A000C942A0098
:100040000C942A000C942A000C942A000C942A0088
:100050000C942A001895F89408E00EBF0FE50DBF28
:1000600000E80FBF0FEF0ABB0FE107BB0FE304BBB4
:1000700000EC05BB02E003BF0FEE02BFBB24B3944C
:1000800000E005BD00E00FBD04E00EBD00E01FEF85
:100090001DBD0CBD05EC09BF70E0A0E6B0E000E2BC
:1000A000402E43BC10EC802E0FEFA02E7894000061
:1000B0000000000010E00E94C500E4E9F8E00E94A2
:1000C0005201FBCFF8940F931F930FB70F93BA947D
:1000D00061F5BB24B39400E00BBB703029F401E060
:1000E000102E00E0202E06C0753021F400E0102E06
:1000F00001E0202E012D1FE1012708BB022D1FE387
:100100000127006C05BB3D903BBA8894110C889484
:10011000220C73957B3019F470E0A0E6B0E000E0AB
:1001200004BD02E005BD0FEE02BF0F910FBF1F918E
:100130000F9178941895F8940F9300E005BD0F91F6
:1001400078941895F8940F930FB70F9300E005BDBE
:1001500000E004BD042D003211F000E00BBB0F9154
:100160000FBF0F9178941895F8940F931F930FB7C2
:100170000F930E94FB0300E01FEF1DBD0CBD0F910C
:100180000FBF1F910F91789418950F93CF93DF9322
:10019000C0E6D0E00BE019930A95E9F7DF91CF9123
:1001A0000F910895F8940F931F932F930FB70F9308
:1001B000CF93DF932F77C0E6D0E0012F0695069509
:1001C0000695C00F012F077011E0003019F00A9555
:1001D000110FFBCF000008810000203011F0012B2F
:1001E00002C010950123F894000008837894000061
:1001F000DF91CF910F910FBF2F911F910F917894A5
:100200000895F8941F932F93CF93DF93C0E6D0E027
:10021000012F069506950695C00F012F077011E076
:10022000003019F00A95110FFBCF00000881000083
:100230000123003009F001E0DF91CF912F911F9150
:1002400078940895F8940F931F93CF93DF93D0E0A1
:10025000042F007F003F29F4042F0F70C0ECC00F63
:100260004881052F007F003F29F4052FC0EC0F7057
:10027000C00F5881032F007F003F29F4032FC0ECEB
:100280000F70C00F3881022F007F003F29F4022F2A
:10029000C0EC0F70C00F2881DF91CF911F910F919B
:1002A000789408950F931F932F933F934F935F93E9
:1002B000EF93FF930591003049F0FF91EF915F912B
:1002C0004F913F912F911F910F91089505910F3FED
:1002D000A1F3013071F445913591259115911A954D
:1002E0000E94D2000E94EA034A95C1F70E94EA03E5
:1002F000EDCF0230C9F445915591359125910E9479
:100300002201022F00785A95602F142F1A950E940F
:10031000D2000E94EA03151709F4D8CF603011F417
:100320001395F5CF1A95F3CF033071F445913591BC
:1003300050E020E00E942201142F1A9521E00E9433
:10034000D2000E94EA03C2CF043071F44591359186
:1003500020E050E00E942201142F1A9520E00E9414
:10036000D2000E94EA03B2CF053049F4359140E053
:1003700050E020E00E9422010E94EA03A7CF07304C
:10038000E1F445915591359125910E942201022F6A
:100390000078602F142F1A950E94D2000E94EA0361
:1003A00001E020270E94D2002027603011F413952D
:1003B00001C01A95151781F789CF063099F4459138
:1003C0003591259161E015911A950E94D2000E9405
:1003D000EA0326270E94D20026270E94EA034A95B4
:1003E00091F774CF11E0083019F010E0093001F5F1
:1003F00045915591359125910E942201022F212F7F
:1004000061E0142F1A950E94D20013951517D9F7A1
:100410000E94EA032627142F1A950E94D2001395F2
:100420001517D9F70E94EA0326270A9551F74ECFF0
:100430000A3081F44591359161E015911A950E9439
:1004400001010627202F0E94D2000E94EA034A954C
:10045000A1F73CCF0B3099F445915591359120E0AF
:10046000142F1A9561E00E9401010627202F0E9497
:10047000D2000E94EA0313951517A9F727CF0C3075
:10048000A9F4459155915A955A95359120E0142F2C
:100490001A9561E00E9401010627202F0E94D200D8
:1004A0000E94EA031A951517A9F710CF0D30C9F469
:1004B000459155915A955A95142F1A950E9401010C
:1004C000302F13950E940101202F1A950E94D2000F
:1004D000151711F01395F5CF1395232F0E94D20015
:1004E000F5CE0E30B9F445915591142F1A950E940E
:1004F0000101302F1A950E940101202F13950E94AF
:10050000D200151711F01A95F5CF1A95232F0E94D6
:10051000D200DCCE0F3029F5C5EBD0E05524459153
:10052000559125911591612F1F771A951993539421
:100530000E94D200607861F061E02627352F0E948A
:10054000EA031A910E94D2005A94D9F761E0262753
:100550004A9541F760E0561619F0352F0E94EA03DC
:10056000B5CE013141F4159125911F70C0ECD0E05A
:10057000C10F2883ABCE023171F425911591C0ECE7
:10058000D0E02F70C20F1A950E940101003009F0CF
:1005900001E008839BCE003109F545911591359115
:1005A000C0ECD0E01F70C10F28812F9315911A95D0
:1005B0001F93512F14911A950E940101003009F0E8
:1005C00001E0202F1F910E94D2004A9579F72F91C8
:1005D000152F0E94D2000E94EA0378CE0331E1F485
:1005E000459155913591642F6A95432F3F773A9500
:1005F0004078403009F041E0162F0E940101202F81
:10060000132F0E94D200403011F4339501C03A9567
:100610006395651789F75ACE043179F445911591A0
:1006200025910E940101003009F001E0122F202FD6
:100630000E94D2004A9599F749CE0531F9F44591C7
:100640005591259135910E94220161E0622E142F6F
:100650001A95462F4323403019F02F9321E002C012
:100660002F9320E00E94D2002F91661F2A9511F44B
:1006700061E0262D1395151761F728CE063151F448
:1006800015912591C0ECD0E01F70C10F2883EF9326
:10069000FF931CCE073149F41591C0ECD0E01F70D8
:1006A000C10F28812A95288311CE083189F415912C
:1006B000C0ECD0E01F70C10F2881203029F0FF91DD
:1006C000EF91EF93FF9302CE0F910F91FFCDFECDEF
:1006D000093129F4FF91EF91EF93FF93F7CD0B319F
:1006E00049F41591C0ECD0E01F70C10F288123950B
:1006F0002883ECCD0A3161F515911F7025912F707B
:100700003591C0ECD0E0C10F4881C0ECC20F5881D8
:100710003B3211F4450F17C03D3211F4451B13C095
:100720003A3211F4459F0FC0313611F445230BC006
:100730003F3611F4452B07C03C3311F4441F03C06E
:100740004E3309F45795C0ECD0E0C10F4883BECDBD
:100750000032A9F5459155913591C0ECD0E04F702C
:10076000C40F48814F933F930E9422013F914F91C4
:100770003D3319F44517D1F41EC03E3619F4451720
:10078000A9F019C03C3319F4451784F414C0333769
:1007900019F454175CF00FC0373619F445175CF4A0
:1007A00005C03E3341F4541734F000C0FF91EF917F
:1007B000EF93FF938BCD0F910F910C946601013253
:1007C00041F4459150E020E030E00E942201A42E47
:1007D0007DCD7CCD1F932F933F93303041F02A2D58
:1007E0001FEF1A95F1F72A95D9F73A95C1F73F917E
:1007F0002F911F9108950F931F9303B3102F10741F
:1008000071F4182D107429F14A94142D113011F43B
:1008100012E0412E43BC182D1078812E20C0182DD7
:100820001064812E102F107871F4182D107889F033
:100830004394142D113211F410E2412E43BC182DB3
:100840001074812E0CC0182D1068812E0EE1902E90
:1008500006C09A9421F40EE1902E00EC802E1F9198
:100860000F910895000201540000FF00000201549E
:100870000001FF00001609010002015400000016EB
:1008800000540003F00000050100001700000018EC
:1008900000000019000201540000001609010016B2
:1008A00003020002012A00000003010000032A00E5
:1008B00000050A0000211400001608020011012999
:1008C000001600150003F0000003F1000005010010
:1008D0000004F0000004F100000501000017010011
:1008E00000170000002000F83C00001B0000001B67
:1008F00001000003F0000003F100001B08000020CD
:1009000008153E000021E0000005EF000021140062
:10091000000B2B540100000B2B540100000B2B5437
:100920000100000B2B540100000B2B540100000BA5
:100930002B540100000B2B540100000B2B54010021
:10094000000B2B540100000B2B540100000B2B5407
:10095000010000170300001803000021FF0000053C
:10096000EF000016030200020154000000050A0017
:100970000021020000160801001600540003F000D8
:10098000000501000004F00000050100001701004F
:1009900000170000002000F83C00001B00000003CE
:1009A000F000001B0800002008543E000021280031
:1009B0000005EF0000211400000B2B540100000B78
:1009C0002B540100000B2B540100000B2B54010091
:1009D000000B2B540100000B2B540100000B2B5477
:1009E0000100000B2B540100000B2B540100000BE5
:1009F0002B540100000B2B5401000005EF000017E1
:100A00000300001803000005EF000002015401007C
:100A10000021040000050A00001600140016010160
:100A20000003F10000050A000004F100001B0100B2
:100A3000002001153E000016012A0003F100000508
:100A40000A000004F10000170100002001163C001C
:100A500000170000001800000021040000050A0033
:100A6000001601010003F10000050A00001B01004F
:100A7000002001153E000016012A0003F1000005C8
:100A80000A0000170100002001163C000021EF00C1
:100A900000082B5414020008015414020021040021
:100AA0000002015400000001070001070D13272177
:100AB0001B0000034F0000160201001601EF001298
:100AC0000001000000102A001401020304050607BB
:100AD00008090A0B0C0D0E0F1011121314152A29F8
:100AE0002827262524232221201F1E1D1C1B1A19FE
:100AF000181716000011000100102C00144F50515F
:100B0000484746454443333435363738393A32312D
:100B1000302F2E2D2C2B3B3C3D3E3F4041424E4D35
:100B20004C4B4A4952535400001701000018010071
:100B30000005EF00001601EF001200160000001083
:100B40002A0014161718191A1B1C1D1E1F202122FB
:100B5000232425262728292A1514131211100F0ED5
:100B60000D0C0B0A09080706050403020100001119
:100B7000000000102C0014545352494A4B4C4D4E67
:100B80004241403F3E3D3C3B2B2C2D2E2F303132FD
:100B90003A3938373635343343444546474851505F
:100BA0004F0000170100001801000005EF000017BA
:100BB00002000018020000052000002115000016A8
:100BC000000C0002015400000005500000032A0040
:100BD00000000005040000042A00000000010200DB
:100BE000011529000005040000010200001529007C
:100BF0000001030001143228000000050400000178
:100C00000300001432280000000102000113270035
:100C1000000504000001020000132700000103008A
:100C2000011231260000000504000001030000123B
:100C3000312600000001040001113A4225000005A0
:100C400004000001040000113A42250000010500E3
:100C500001103930412400000005040000010500A6
:100C6000001039304124000000010300010F2F2340
:100C700000000005040000010300000F2F23000006
:100C800000010400014838404E0000050400000146
:100C90000400004838404E0000010300010E2E22DF
:100CA00000000005040000010300000E2E220000D9
:100CB00000010600010D47373F4D210000050400EB
:100CC00000010600000D47373F4D210000010300E1
:100CD00001512D54000000050400000103000051E3
:100CE0002D54000000010600010C46363E4C200049
:100CF0000005040000010600000C46363E4C2000B2
:100D000000010900010B5045352C3D4B531F0000DD
:100D10000005040000010900000B5045352C3D4B37
:100D2000531F000000010900010A4F44342B3C4AC4
:100D3000521E00000005040000010900000A4F4493
:100D4000342B3C4A521E000000010300014F0152A7
:100D500000000005040000010300004F01520000E4
:100D6000000108000109433302163B491D0000053C
:100D70000400000108000009433302163B491D002E
:100D800000010400010803171C0000050400000115
:100D90000400000803171C000001040001070418E8
:100DA0001B000005040000010400000704181B00DC
:100DB00000010400010605191A00000504000001E5
:100DC0000400000605191A000001040001060519B7
:100DD0001A000005040000010400000605191A00AD
:100DE00000010400010704181B00000504000001B5
:100DF0000400000704181B00000104000108031789
:100E00001C000005040000010400000803171C007A
:100E1000000108000109433302163B491D0000058B
:100E20000400000108000009433302163B491D007D
:100E300000010300014F0152000000050400000101
:100E40000300004F0152000000010900010A4F4455
:100E5000342B3C4A521E000000050400000109002A
:100E6000000A4F44342B3C4A521E00000001090086
:100E7000010B5045352C3D4B531F0000000504006D
:100E800000010900000B5045352C3D4B531F00005D
:100E900000010600010C46363E4C2000000504000F
:100EA00000010600000C46363E4C20000001030005
:100EB00001512D5400000005040000010300005101
:100EC0002D54000000010600010D47373F4D210061
:100ED0000005040000010600000D47373F4D2100CA
:100EE00000010300010E2E22000000050400000195
:100EF0000300000E2E2200000001040001483840CB
:100F00004E000005040000010400004838404E0077
:100F100000010300010F2F23000000050400000161
:100F20000300000F2F2300000001050001103930DD
:100F300041240000000504000001050000103930C4
:100F4000412400000001040001113A42250000057F
:100F500004000001040000113A42250000010300D2
:100F600001123126000000050400000103000012F8
:100F700031260000000102000113270000050400D3
:100F800000010200001327000001030001143228B1
:100F900000000005040000010300001432280000D6
:100FA00000010200011529000005040000010200F3
:100FB0000015290000032A000000000504000004B9
:100FC0002A00000000170000001800000016000CA6
:100FD00000010300010A0B0C0000000504000001E1
:100FE0000300000A0B0C00000001020001090D00C3
:100FF000000504000001020000090D0000010500C9
:1010000001084F50510E00000005040000010500CA
:1010100000084F50510E00000001020001070F00B0
:10102000000504000001020000070F000001090094
:1010300001064344454647481011000000050400DE
:1010400000010900000643444546474810110000CE
:101050000001020001051200000504000001020069
:101060000005120000010A00010433343536373818
:10107000393A13000005040000010A00000433346B
:1010800035363738393A13000001020001031400E5
:10109000000504000001020000031400000102002A
:1010A0000102150000050400000102000002150005
:1010B00000010A0001012B2C2D2E2F3031322A0085
:1010C0000005040000010A0000012B2C2D2E2F30FA
:1010D00031322A0000010200011629000005040037
:1010E000000102000016290000010200011728007B
:1010F00000050400000102000017280000010A009A
:1011000001183B3C3D3E3F404142270000050400A2
:1011100000010A0000183B3C3D3E3F404142270091
:101120000001020001192600000504000001020070
:101130000019260000010900011A494A4B4C4D4E86
:10114000242500000005040000010900001A494A96
:101150004B4C4D4E2425000000010200011B2300D2
:101160000005040000010200001B2300000105002F
:10117000011C525354220000000504000001050028
:10118000001C52535422000000010200011D2100E6
:101190000005040000010200001D21000001030001
:1011A000011E1F2000000005040000010300001EB6
:1011B0001F20000000010300011E1F200000000589
:1011C000040000010300001E1F20000000010200B7
:1011D000011D21000005040000010200001D210086
:1011E00000010500011C52535422000000050400B8
:1011F00000010500001C52535422000000010200AF
:10120000011B23000005040000010200001B230055
:1012100000010900011A494A4B4C4D4E242500009B
:101220000005040000010900001A494A4B4C4D4ECC
:101230002425000000010200011926000005040019
:10124000000102000019260000010A0001183B3CC1
:101250003D3E3F40414227000005040000010A00D6
:1012600000183B3C3D3E3F40414227000001020048
:1012700001172800000504000001020000172800E3
:10128000000102000116290000050400000102000F
:101290000016290000010A0001012B2C2D2E2F30F1
:1012A00031322A000005040000010A0000012B2C45
:1012B0002D2E2F3031322A000001020001021500CC
:1012C00000050400000102000002150000010200F8
:1012D00001031400000504000001020000031400D3
:1012E00000010A000104333435363738393A130027
:1012F0000005040000010A00000433343536373895
:10130000393A130000010200010512000005040033
:10131000000102000005120000010900010643441B
:10132000454647481011000000050400000109006F
:1013300000064344454647481011000000010200E2
:1013400001070F00000504000001020000070F0064
:101350000001050001084F50510E00000005040077
:101360000001050000084F50510E0000000102006E
:1013700001090D00000504000001020000090D0034
:1013800000010300010A0B0C00000005040000012D
:101390000300000A0B0C00000017000000180000FA
:0413A0000019FF0031
:00000001FF
